:020000040000FA
:0400000023EF00F0FA
:060008006F82FCED0CF01C
:100018006F80E0CF0FF0F0A214EF00F016EF00F0C1
:100028001FEF00F0F0A81BEF00F01DEF00F01FEF2E
:1000380000F0F7EC1FF00FC0E0FF6F9010004FEFDB
:0200480019F0AD
:10100000002A3FF43E043F922ED0301E3F34358CF0
:101010003F843F7C3F743F6C3F643F5C3F123FFC2A
:10102000373738392F3435362A3132332D63303D56
:101030002B54656D706572617475726520697320DB
:101040002020204300456E746572204E6577205342
:10105000706565643A00322D2054656D702E3A003B
:10106000312D2053706565643A004D4F544F525FE7
:101070003100256900002DC045F02EC046F02FC07C
:1010800047F030C048F031C049F032C04AF033C0B8
:101090004BF034C04CF04CBE50EF08F053EF08F06A
:1010A000010E54EF08F0000E436E446A43504410A2
:1010B000D8B45DEF08F05FEF08F06FEF08F04C1E5A
:1010C0004B1E4A1E491E481E471E461E456C000EFA
:1010D00046224722482249224A224B224C22000122
:1010E000A9BF75EF08F077EF08F078EF08F05F928E
:1010F000A9BF85EF08F0A95106E1A805D8B083EF94
:1011000008F085EF08F08BEF08F0000E406E010E3E
:101110003F6E8FEF08F0A8C03FF0A9C040F0A6C016
:1011200041F0A7C042F043504410D8A49AEF08F011
:101130009CEF08F0A3EF08F05FA4A1EF08F0A3EF85
:1011400008F0A6EF08F04106D8A04206000E4E6E49
:101150001F0E4D6E000E01014B6F2BEF09F04D0677
:10116000D8A04E062C0E4D24D96E010E4E20DA6EFC
:1011700045C010F046C011F047C012F048C013F04F
:1011800049C014F04AC015F04BC016F04CC017F01F
:101190000A0E186E000E196E000E1A6E000E1B6EEF
:1011A000000E1C6E000E1D6E000E1E6E000E1F6ED9
:1011B00006EC11F010C035F011C036F012C037F057
:1011C00013C038F014C039F015C03AF016C03BF027
:1011D00017C03CF035C022F037C023F0CBEC1DF037
:1011E0002250300FDF6E3F06D8A040064106D8A03F
:1011F000420645C010F046C011F047C012F048C08A
:1012000013F049C014F04AC015F04BC016F04CC0A2
:1012100017F00A0E186E000E196E000E1A6E000EF0
:101220001B6E000E1C6E000E1D6E000E1E6E000E5C
:101230001F6EC6EC0EF010C045F011C046F012C093
:1012400047F013C048F014C049F015C04AF016C06A
:101250004BF017C04CF04EBE36EF09F04E5008E18F
:101260004D04D8A036EF09F038EF09F068EF09F027
:10127000455046104710481049104A104B104C106A
:10128000D8A445EF09F047EF09F0AFEF08F040BEF2
:1012900054EF09F0405006E13F04D8B052EF09F096
:1012A00054EF09F0AFEF08F042BE5FEF09F0425093
:1012B00008E14104D8A05FEF09F061EF09F068EFA1
:1012C00009F05FB266EF09F068EF09F0AFEF08F0E0
:1012D00043504410D8A46FEF09F071EF09F078EF94
:1012E00009F05FA476EF09F078EF09F096EF09F0C6
:1012F0004D06D8A04E0643504410D8A482EF09F002
:1013000084EF09F08AEF09F0000E3E6E2B0E3D6E61
:101310008EEF09F0000E3E6E2D0E3D6E2C0E4D240C
:10132000D96E010E4E20DA6E3DC0DFFF2BC020F0DB
:101330002CC021F02C0E4D24226E010E4E20236E67
:1013400041C024F042C025F0ABEC17F020C02BF0D8
:1013500021C02CF01200000E2F6E000E306E000E19
:10136000336E2804316E23502410D8A4BAEF09F04C
:10137000BCEF09F0C0EF09F0000E326EE0EF0AF0AA
:101380002704D8A4C6EF09F0C8EF09F0D3EF09F09D
:1013900023C01AF024C01BF03150800F1C6EB8EC33
:1013A00011F00FEF0AF0020E2718D8A4DAEF09F0B7
:1013B000DCEF09F0E7EF09F023C01AF024C01BF0BE
:1013C0003150C00F1C6EB8EC11F00FEF0AF0030E95
:1013D0002718D8A4EEEF09F0F0EF09F0FBEF09F0C1
:1013E00023C01AF024C01BF03150940F1C6EB8ECCF
:1013F00011F00FEF0AF0040E2718D8A402EF0AF03C
:1014000004EF0AF00FEF0AF023C01AF024C01BF01B
:101410003150D40F1C6EB8EC11F00FEF0AF023C05E
:1014200010F024C011F0010E126E79EC13F0326E40
:10143000000E306ECCEF0AF0000E336E33502324D2
:10144000296E000E24202A6E020E2924106E000E32
:101450002A20116E33C02BF0040E2B263050252489
:101460002C6E000E26202D6E2CC0F6FF2DC0F7FF2F
:10147000000EF86E0F0EF76403D00800F55005D08B
:10148000F6CFE9FFF7CFEAFFEF502E6E2B2A4BEF96
:101490000AF0D8902E322B2E49EF0AF02E50010B75
:1014A000126E79EC13F0332A030E33645AEF0AF00C
:1014B0005CEF0AF01EEF0AF0010E2324106E000EFE
:1014C0002420116E010E126E79EC13F0060EE82E38
:1014D000FED700D0010E2324106E000E2420116EC2
:1014E000000E126E79EC13F0000E336E335023248D
:1014F000296E000E24202A6E020E2924106E000E82
:101500002A20116E33C02BF0305025242C6E000E93
:1015100026202D6E2CC0F6FF2DC0F7FF000EF86EB2
:101520000F0EF76403D00800F55005D0F6CFE9FFA1
:10153000F7CFEAFFEF502E6E2B2AA1EF0AF0D890DA
:101540002E322B2E9FEF0AF02E50010B126E79ECEB
:1015500013F0332A030E3364B0EF0AF0B2EF0AF04F
:1015600076EF0AF0010E2324106E000E2420116E77
:10157000010E126E79EC13F0060EE82EFED700D0A5
:10158000010E2324106E000E2420116E000E126E28
:1015900079EC13F0326E302A25C010F026C011F01D
:1015A000B8EC1CF03050296E2A6A1050295C11509A
:1015B0002A58D8A0DEEF0AF0E0EF0AF01CEF0AF09C
:1015C00032501200000E0101586F240E1A6E010EE7
:1015D0001B6E580E1C6E010E1D6E16EC15F00001F0
:1015E000C46F320E01015819D8A4F9EF0AF0FBEFCD
:1015F0000AF051EF0BF0F60E1A6E000E1B6E010E84
:101600001C6EB8EC11F00001C46F000E196E920E42
:101610008CEC1BF00101536F540E0001EF6F010EB3
:10162000F06F01015351BBEC18F00001C46F8AEC5C
:101630000FF0F60E236E000E246E310E256E100E86
:10164000266E030E276E010E286EABEC09F000012A
:10165000C46FF60E236E000E246E540E256E010E1E
:10166000266E030E276E100E286EABEC09F00001FB
:10167000C46F290E0001F46F960EF36F7F0EE82EF3
:10168000FED7F32FFCD7F42FFAD7F60E1A6E000E02
:101690001B6E010E1C6EB8EC11F00001C46FA0ECC3
:1016A0001FF0310E01015819D8A459EF0BF05BEF70
:1016B0000BF00EEF0CF0000E576F000E596FF60E88
:1016C0001A6E000E1B6E010E1C6EB8EC11F00001BC
:1016D000C46F8AEC0FF0F60E236E000E246E450EDA
:1016E000256E100E266E030E276E010E286EABECD3
:1016F00009F00001C46F050E0001F46F0F0EF36FC7
:10170000F10EE82EFED7F32FFCD7F42FFAD7300EC8
:1017100001015A6FF8EF0BF0240E1A6E010E1B6ECA
:101720005A0E1C6E010E1D6E16EC15F00001C46FF2
:10173000050E0001F46F0F0EF36FF10EE82EFED7C9
:10174000F32FFCD7F42FFAD7300E01015A19D8B471
:10175000ACEF0BF0AEEF0BF08CEF0BF05951D8A4BF
:10176000B4EF0BF0B6EF0BF0D0EF0BF0F60E236EEC
:10177000000E246E5AC125F0030E266E5951110F2A
:10178000276E0FEC0CF00001C46F01015A51D00F0D
:101790000A0DF3CF57F1300E5A6F592BEEEF0BF0C5
:1017A0005905D8A4D6EF0BF0D8EF0BF0EEEF0BF005
:1017B000F60E236E000E246E5AC125F0030E266E1F
:1017C0005951110F276E0FEC0CF00001C46F01018D
:1017D0005A515725D00F576FCBEF0BF0000E136EF9
:1017E000000E126E57C114F02AEC1EF00001C46FF7
:1017F0003D0E01015A19D8A400EF0CF002EF0CF0D5
:10180000A4EF0BF0F60E1A6E000E1B6E010E1C6E8E
:10181000B8EC11F00001C46FA0EC1FF01200000E34
:101820002E6E27042C6E23502410D8A41AEF0CF02F
:101830001CEF0CF020EF0CF0000E2D6EFAEF0CF008
:101840002604D8A426EF0CF028EF0CF033EF0CF0B0
:1018500023C01AF024C01BF02C50800F1C6EB8EC73
:1018600011F06FEF0CF0020E2618D8A43AEF0CF02E
:101870003CEF0CF047EF0CF023C01AF024C01BF033
:101880002C50C00F1C6EB8EC11F06FEF0CF0030E73
:101890002618D8A44EEF0CF050EF0CF05BEF0CF0D4
:1018A00023C01AF024C01BF02C50940F1C6EB8EC0F
:1018B00011F06FEF0CF0040E2618D8A462EF0CF0B4
:1018C00064EF0CF06FEF0CF023C01AF024C01BF093
:1018D0002C50D40F1C6EB8EC11F06FEF0CF023C03D
:1018E00010F024C011F0010E126E79EC13F0000E0E
:1018F0002E6E2E502324286E000E2420296E020EF8
:101900002824106E000E2920116E2EC02AF0040E1D
:101910002A2625C02BF02A2A90EF0CF0D8902B32E3
:101920002A2E8EEF0CF02B50010B126E79EC13F077
:101930002E2A030E2E649FEF0CF0A1EF0CF079EF2E
:101940000CF0010E2324106E000E2420116E010EE7
:10195000126E79EC13F0060EE82EFED700D0010EC1
:101960002324106E000E2420116E000E126E79ECEE
:1019700013F0000E2E6E2E502324286E000E24200D
:10198000296E020E2824106E000E2920116E2EC022
:101990002AF025C02BF02A2AD0EF0CF0D8902B3259
:1019A0002A2ECEEF0CF02B50010B126E79EC13F0B7
:1019B0002E2A030E2E64DFEF0CF0E1EF0CF0BBEFEC
:1019C0000CF0010E2324106E000E2420116E010E67
:1019D000126E79EC13F0060EE82EFED700D0010E41
:1019E0002324106E000E2420116E000E126E79EC6E
:1019F00013F02D6E2D5012000600D9CF0BF0DACF68
:101A00000CF0F3CF0DF0F4CF0EF0F2A20AEF0DF0D0
:101A10000CEF0DF017EF0DF0F2A811EF0DF013EF32
:101A20000DF017EF0DF0FFEC1FF0DDEF0DF0F0A063
:101A30001CEF0DF01EEF0DF029EF0DF0F0A623EFD7
:101A40000DF025EF0DF029EF0DF0FDEC1FF0DDEFAF
:101A50000DF0F2A02EEF0DF030EF0DF03BEF0DF09A
:101A6000F2A635EF0DF037EF0DF03BEF0DF0FBEC8C
:101A70001FF0DDEF0DF09EAC40EF0DF042EF0DF0EA
:101A80004DEF0DF09DAC47EF0DF049EF0DF04DEF30
:101A90000DF003EC20F0DDEF0DF0F2A452EF0DF0AD
:101AA00054EF0DF05FEF0DF0F2AA59EF0DF05BEF80
:101AB0000DF05FEF0DF068EC1DF0DDEF0DF09EA076
:101AC00064EF0DF066EF0DF071EF0DF09DA06BEF80
:101AD0000DF06DEF0DF071EF0DF046EC1DF0DDEF48
:101AE0000DF09EA276EF0DF078EF0DF083EF0DF084
:101AF0009DA27DEF0DF07FEF0DF083EF0DF0CEECAA
:101B00001FF0DDEF0DF0A1A288EF0DF08AEF0DF0D0
:101B100095EF0DF0A0A28FEF0DF091EF0DF095EF86
:101B20000DF024EC1DF0DDEF0DF09EA49AEF0DF00A
:101B30009CEF0DF0A7EF0DF09DA4A1EF0DF0A3EF2A
:101B40000DF0A7EF0DF001EC20F0DDEF0DF09EA8F9
:101B5000ACEF0DF0AEEF0DF0B9EF0DF09DA8B3EFC7
:101B60000DF0B5EF0DF0B9EF0DF0F9EC1FF0DDEF72
:101B70000DF09EAABEEF0DF0C0EF0DF0CBEF0DF013
:101B80009DAAC5EF0DF0C7EF0DF0CBEF0DF007EC00
:101B900020F0DDEF0DF09EA6D0EF0DF0D2EF0DF0AE
:101BA000DDEF0DF09DA6D7EF0DF0D9EF0DF0DDEFD5
:101BB0000DF068EC1FF0DDEF0DF00EC0F4FF0DC06E
:101BC000F3FF0CC0DAFF0BC0D9FF6F92110051C0B8
:101BD000D9FF52C0DAFFDECFF6FFDDCFF7FFF86A9C
:101BE0000800F550250AD8A4F8EF0DF0FAEF0DF033
:101BF000A9EF0EF051C0D9FF52C0DAFFDE2A000E65
:101C0000DD22000E0001A76F000EA66FA6C05FF0D8
:101C1000A7C060F0A869A96951C0D9FF52C0DAFF16
:101C2000DECFF6FFDDCFF7FFF86A0800F550640A53
:101C3000D8B41DEF0EF01FEF0EF032EF0EF051C0D2
:101C4000D9FF52C0DAFFDECFF6FFDDCFF7FFF86A2B
:101C50000800F550690AD8A430EF0EF032EF0EF00C
:101C600072EF0EF051C0D9FF52C0DAFFDE2A000E2B
:101C7000DD2253C0D9FF54C0DAFFDFCF55F0020E8A
:101C8000DE26DFCF56F0000EDD2255C0D9FF56C04C
:101C9000DAFFDECF57F0DDCF58F0000E58BEFF0E52
:101CA000596E5A6E5B6E5C6E5D6E5E6E4FC02BF051
:101CB00050C02CF057C02DF058C02EF059C02FF056
:101CC0005AC030F05BC031F05CC032F05DC033F020
:101CD0005EC034F03BEC08F02BC04FF02CC050F04D
:101CE000C5EF0EF051C0D9FF52C0DAFFDECFF6FFCC
:101CF000DDCFF7FFF86A0800F550250AD8A483EF76
:101D00000EF085EF0EF09CEF0EF051C0D9FF52C0DF
:101D1000DAFFDE2A000EDD22000E116E250E106E97
:101D20004FC012F050C013F0E4EC16F0000E506EED
:101D3000010E4F6EC5EF0EF051C0D9FF52C0DAFF51
:101D4000DE2A000EDD22000E506E000E4F6EC5EF33
:101D50000EF051C0D9FF52C0DAFFDECFF6FFDDCF63
:101D6000F7FFF86A0800F550106E116A4FC012F0C4
:101D700050C013F0E4EC16F051C0D9FF52C0DAFFA6
:101D8000DE2A000EDD2296EF0EF01200000E216E0C
:101D90001FBECFEF0EF0CDEF0EF0E1EF0EF01F1EE5
:101DA0001E1E1D1E1C1E1B1E1A1E191E186C000E48
:101DB00019221A221B221C221D221E221F22010E62
:101DC000216E17BEE8EF0EF0E6EF0EF0FAEF0EF020
:101DD000171E161E151E141E131E121E111E106C29
:101DE000000E11221222132214221522162217226B
:101DF000010E211A20EE22F0070EDE6AE806FDE24F
:101E0000185019101A101B101C101D101E101F1036
:101E1000D8B40DEF0FF00FEF0FF061EF0FF0010EE0
:101E2000206E1DEF0FF0D890183619361A361B3673
:101E30001C361D361E361F36202A1FAE22EF0FF02D
:101E400024EF0FF013EF0FF0D8902236233624360C
:101E5000253626362736283629361850105C195074
:101E600011581A5012581B5013581C5014581D501A
:101E700015581E5016581F501758D8A042EF0FF093
:101E800044EF0FF055EF0FF01850105E1950115A33
:101E90001A50125A1B50135A1C50145A1D50155ADE
:101EA0001E50165A1F50175A2280D8901F321E32C9
:101EB0001D321C321B321A3219321832202E24EFF6
:101EC0000FF02150D8B467EF0FF069EF0FF079EF02
:101ED0000FF0291E281E271E261E251E241E231E27
:101EE000226C000E232224222522262227222822A9
:101EF000292222C010F023C011F024C012F025C006
:101F000013F026C014F027C015F028C016F029C021
:101F100017F01200000E366E000E376E000E386E8F
:101F2000000E396E000E3A6E020E196ED00E8CEC59
:101F30001BF0346E34380F0B356E020E196ED00E56
:101F40008CEC1BF00F0B366E010E196ED00E8CEC64
:101F50001BF0346E34380F0B376E010E196ED00E35
:101F60008CEC1BF00F0B386E000E196ED00E8CEC43
:101F70001BF0346E34380F0B396E000E196ED00E14
:101F80008CEC1BF00F0B3A6EF60E236E000E246ED7
:101F90003A0E256E010E266E0F0E276E0FEC0CF01A
:101FA0000001C46FF60E236E000E246E3550300F04
:101FB000256E010E266E0D0E276E0FEC0CF0000143
:101FC000C46FF60E236E000E246E3650300F256E51
:101FD000010E266E0E0E276E0FEC0CF00001C46F82
:101FE000F60E236E000E246E3750300F256E010E54
:101FF000266E100E276E0FEC0CF00001C46FF60E6B
:10200000236E000E246E3850300F256E010E266EA2
:10201000110E276E0FEC0CF00001C46FF60E236E4C
:10202000000E246E3A0E256E010E266E120E276EDD
:102030000FEC0CF00001C46FF60E236E000E246E40
:102040003950300F256E010E266E130E276E0FECE1
:102050000CF00001C46FF60E236E000E246E3A5091
:10206000300F256E010E266E140E276E0FEC0CF04D
:102070000001C46FF60E236E000E246E6A0E256EEC
:10208000100E266E010E276E010E286EABEC09F0C5
:102090000001C46F120014C01EF015C01FF01850CC
:1020A0001910D8A456EF10F058EF10F05AEF10F0B6
:1020B00005EF11F01EC0D9FF1FC0DAFF16C0DFFF09
:1020C00018501E241A6E19501F201B6EFF0E1A2462
:1020D000D96EFF0E1B20DA6E16C0DFFF195007E124
:1020E000030E185CD8B077EF10F079EF10F07BEFAB
:1020F00010F005EF11F020EE01F01E50D9261F5010
:10210000DA2216C0DFFF20EE02F01E50D9261F5043
:10211000DA2216C0DFFF18501E241A6E19501F2035
:102120001B6EFE0E1A24D96EFF0E1B20DA6E16C02F
:10213000DFFF18501E241A6E19501F201B6EFD0E53
:102140001A24D96EFF0E1B20DA6E16C0DFFF19505D
:1021500007E1070E185CD8B0B0EF10F0B2EF10F046
:10216000B4EF10F005EF11F020EE03F01E50D92669
:102170001F50DA2216C0DFFF18501E241A6E1950A5
:102180001F201B6EFC0E1A24D96EFF0E1B20DA6E68
:1021900016C0DFFF195007E1090E185CD8B0D3EF65
:1021A00010F0D5EF10F0D7EF10F005EF11F01EC0D2
:1021B0001AF01FC01BF01A1E1B1E1A4A1B2A030E00
:1021C0001A141C6E1D6A1C501E261D501F221C5006
:1021D000185E1D50195AFC0E1816FF0E1916FCEF4A
:1021E00010F01EC0D9FF1FC0DAFF16C0DFFF1806AF
:1021F000D8A019061E4A1F2A18501910D8A403EF98
:1022000011F005EF11F0F1EF10F01200000E216E49
:1022100017BE0FEF11F00DEF11F021EF11F0171EA7
:10222000161E151E141E131E121E111E106C000EFB
:102230001122122213221422152216221722010E15
:10224000216E1FBE28EF11F026EF11F038EF11F0CC
:102250001F1E1E1E1D1E1C1E1B1E1A1E191E186C64
:10226000000E19221A221B221C221D221E221F22AE
:10227000185019101A101B101C101D101E101F10C2
:10228000D8B445EF11F047EF11F08FEF11F0010EC8
:10229000206E55EF11F0D890183619361A361B36C5
:1022A0001C361D361E361F36202A1FAE5AEF11F07F
:1022B0005CEF11F04BEF11F01850105C19501158F1
:1022C0001A5012581B5013581C5014581D501558B2
:1022D0001E5016581F501758D8A071EF11F073EF09
:1022E00011F083EF11F01850105E1950115A1A5066
:1022F000125A1B50135A1C50145A1D50155A1E5076
:10230000165A1F50175AD8901F321E321D321C32D7
:102310001B321A3219321832202E5CEF11F0215084
:10232000D8B495EF11F097EF11F0A7EF11F0171E49
:10233000161E151E141E131E121E111E106C000EEA
:10234000112212221322142215221622172210C043
:1023500010F011C011F012C012F013C013F014C02D
:1023600014F015C015F016C016F017C017F01200C3
:10237000000E226E1A501B10D8A4C1EF11F0C3EF4B
:1023800011F0C7EF11F0000E216E52EF12F01AC0DB
:1023900010F01BC011F0000E126E79EC13F0000E5D
:1023A000226E22501A241D6E000E1B201E6E020E7D
:1023B0001D24106E000E1E20116E22C01FF0040E90
:1023C0001F261CC020F01F2AE8EF11F0D890203201
:1023D0001F2EE6EF11F02050010B126E79EC13F076
:1023E000222A030E2264F7EF11F0F9EF11F0D1EF7A
:1023F00011F0010E1A24106E000E1B20116E010E3A
:10240000126E79EC13F0060EE82EFED700D0010E06
:102410001A24106E000E1B20116E000E126E79EC45
:1024200013F0000E226E22501A241D6E000E1B2087
:102430001E6E020E1D24106E000E1E20116E22C094
:102440001FF01CC020F01F2A28EF12F0D890203275
:102450001F2E26EF12F02050010B126E79EC13F0B4
:10246000222A030E226437EF12F039EF12F013EF35
:1024700012F0010E1A24106E000E1B20116E010EB8
:10248000126E79EC13F0060EE82EFED700D0010E86
:102490001A24106E000E1B20116E000E126E79ECC5
:1024A00013F0216E21501200010E186E1050111001
:1024B000D8B45DEF12F05FEF12F070EF12F010C0C1
:1024C000D9FF11C0DAFFDF30E832E832070B126EB5
:1024D000070E12646EEF12F070EF12F074EF12F04C
:1024E000000E186EE7EF12F010C0D9FF11C0DAFF2E
:1024F000DFBE7DEF12F07FEF12F0B0EF12F010C0F0
:10250000D9FF11C0DAFFDF30E832E832070B126E74
:10251000010E136E122A8FEF12F0D8901336122E7E
:102520008DEF12F01350FF0A146E10C0D9FF11C0C6
:10253000DAFFDF50070B156E1550020D140EF32451
:10254000D96E010EF420DA6EDECF16F0DDCF17F073
:1025500016C0D9FF17C0DAFF1450DF16E7EF12F0EC
:1025600010C0D9FF11C0DAFFDFAEB9EF12F0BBEF38
:1025700012F070EF12F010C0D9FF11C0DAFFDF3097
:10258000E832E832070B126E010E136E122ACBEFFF
:1025900012F0D8901336122EC9EF12F010C0D9FFE6
:1025A00011C0DAFFDF50070B146E1450020D140E29
:1025B000F324D96E010EF420DA6EDECF15F0DDCFF4
:1025C00016F015C0D9FF16C0DAFF1350DF121850ED
:1025D0001200000E286E23502410D8A4F2EF12F03F
:1025E000F4EF12F0F6EF12F078EF13F0000E286E11
:1025F00028502324256E000E2420266E020E25244A
:10260000106E000E2620116E54EC12F0282A030ED4
:1026100028640DEF13F00FEF13F0F8EF12F0010E36
:102620002324106E000E2420116E54EC12F023C0EF
:1026300010F024C011F054EC12F0680E256EE40E78
:10264000E82EFED7252EFCD700D023C01AF024C0D8
:102650001BF0300E1C6EB8EC11F01A0E256EF80E41
:10266000E82EFED7252EFCD700D023C01AF024C0B8
:102670001BF0300E1C6EB8EC11F0C80EE82EFED721
:1026800023C01AF024C01BF0300E1C6EB8EC11F001
:1026900023C01AF024C01BF0010E1C6EB8EC11F020
:1026A00023C01AF024C01BF0020E1C6EB8EC11F00F
:1026B00023C01AF024C01BF0060E1C6EB8EC11F0FB
:1026C00023C01AF024C01BF00C0E1C6EB8EC11F0E5
:1026D00023C01AF024C01BF0280E1C6EB8EC11F0B9
:1026E00023C01AF024C01BF0800E1C6EB8EC11F051
:1026F0001200010E196E10501110D8B482EF13F0B1
:1027000084EF13F095EF13F010C0D9FF11C0DAFF7A
:10271000DF30E832E832070B136E070E136493EFD5
:1027200013F095EF13F099EF13F0000E196E06EF0A
:1027300014F01204D8A49FEF13F0A1EF13F0CFEF21
:1027400013F010C0D9FF11C0DAFFDF30E832E832F1
:10275000070B136E010E146E132AB1EF13F0D8900D
:102760001436132EAFEF13F010C0D9FF11C0DAFFEB
:10277000DF50070B156E1550020D0A0EF324D96EAB
:10278000010EF420DA6EDECF16F0DDCF17F016C0A2
:10279000D9FF17C0DAFF1450DF1206EF14F0125001
:1027A000D8A4D5EF13F0D7EF13F095EF13F010C0C6
:1027B000D9FF11C0DAFFDF30E832E832070B136EC1
:1027C000010E146E132AE7EF13F0D8901436132E6F
:1027D000E5EF13F01450FF0A156E10C0D9FF11C0B9
:1027E000DAFFDF50070B166E1650020D0A0EF324A7
:1027F000D96E010EF420DA6EDECF17F0DDCF18F0BF
:1028000017C0D9FF18C0DAFF1550DF161950120093
:1028100001500210D8B40FEF14F011EF14F022EFB2
:1028200014F001C0D9FF02C0DAFFDF30E832E8322D
:10283000070B046E070E046420EF14F022EF14F06F
:1028400024EF14F091EF14F00304D8A42AEF14F04D
:102850002CEF14F05AEF14F001C0D9FF02C0DAFFD8
:10286000DF30E832E832070B046E010E056E042AF1
:102870003CEF14F0D8900536042E3AEF14F001C066
:10288000D9FF02C0DAFFDF50070B066E0650020DBB
:102890000A0EF324D96E010EF420DA6EDECF07F0B3
:1028A000DDCF08F007C0D9FF08C0DAFF0550DF12FE
:1028B00091EF14F00350D8A460EF14F062EF14F01D
:1028C00022EF14F001C0D9FF02C0DAFFDF30E83296
:1028D000E832070B046E010E056E042A72EF14F045
:1028E000D8900536042E70EF14F00550FF0A066EDE
:1028F00001C0D9FF02C0DAFFDF50070B076E075097
:10290000020D0A0EF324D96E010EF420DA6EDECF2A
:1029100008F0DDCF09F008C0D9FF09C0DAFF065082
:10292000DF161200F60E236E000E246E600E256E6A
:10293000100E266E020E276E010E286EABEC09F00B
:102940000001C46FF60E236E000E246E560E256E27
:10295000100E266E030E276E010E286EABEC09F0EA
:102960000001C46F000E196E920E8CEC1BF0010179
:102970004C6F4D0E0001EF6F010EF06F01014C51D5
:10298000BBEC18F00001C46FF60E236E000E246E2F
:102990004D0E256E010E266E030E276E0A0E286E52
:1029A000ABEC09F00001C46FF60E236E000E246E2E
:1029B000430E256E030E266E0D0E276E0FEC0CF0E7
:1029C0000001C46F000E116E000E106E6B0E126EC1
:1029D000000E136E59EC1AF00001C46F500EEF6F29
:1029E000010EF06F6B50BBEC18F00001C46FF60ED7
:1029F000236E000E246E500E256E010E266E020E02
:102A0000276E0A0E286EABEC09F00001C46FF60EBB
:102A1000236E000E246E250E256E020E266E0D0E00
:102A2000276E0FEC0CF00001C46F1200000E236E35
:102A3000000E246E000E226E000E216E1A501B1026
:102A4000D8A425EF15F027EF15F02BEF15F0000EA9
:102A5000206E96EF15F0000E236E000E226E2250AF
:102A60001A24106E000E1B20116E000E126E79ECEF
:102A700013F0222A030E226440EF15F042EF15F006
:102A80002FEF15F023501A24106E000E1B20116E2C
:102A9000010E126E79EC13F0000E246E24501A24ED
:102AA0001E6E000E1B201F6E040E1E24106E000EE4
:102AB0001F20116E210E126E000E136E0CEC18F01A
:102AC0002104D8A466EF15F068EF15F082EF15F039
:102AD0002350040D210E1E6E100E1F6EF3501E2685
:102AE000F4501F2224501E26000E1F221EC0F6FF87
:102AF0001FC0F7FFF86A1CC0D9FF1DC0DAFF08002D
:102B0000F5CFDFFF242A030E246489EF15F08BEF45
:102B100015F04EEF15F0232A030E236492EF15F003
:102B200094EF15F02DEF15F0010E206E20501200DD
:102B30001A501B10D8A49FEF15F0A1EF15F0A3EFCA
:102B400015F007EF16F01E9E1AC0D9FF1BC0DAFF62
:102B5000DFAC02D01E8C01D01E9C1AC0D9FF1BC056
:102B6000DAFFDF30E832E832070B1C6E1C461C46E9
:102B70001C461E501C18C70B1C181E6E1AC0D9FF0D
:102B80001BC0DAFFDF50070B1C6E1E501C18F80B21
:102B90001C181E6E1F9E20EE01F01A50D9261B50E5
:102BA000DA22DFAC02D01F8C01D01F9C20EE01F096
:102BB0001A50D9261B50DA22DF30E832E832070BF0
:102BC0001C6E1C461C461C461F501C18C70B1C18AC
:102BD0001F6E20EE01F01A50D9261B50DA22DF506A
:102BE000070B1C6E1F501C18F80B1C181F6E1E0EB6
:102BF000106E000E116E000E126E79EC13F01F0EA7
:102C0000106E000E116E000E126E79EC13F01200B1
:102C10001A501B10D8A40FEF16F011EF16F013EF97
:102C200016F077EF16F01E9E1AC0D9FF1BC0DAFF10
:102C3000DFAC02D01E8C01D01E9C1AC0D9FF1BC075
:102C4000DAFFDF30E832E832070B1C6E1C461C4608
:102C50001C461E501C18C70B1C181E6E1AC0D9FF2C
:102C60001BC0DAFFDF50070B1C6E1E501C18F80B40
:102C70001C181E6E1F9E20EE01F01A50D9261B5004
:102C8000DA22DFAC02D01F8C01D01F9C20EE01F0B5
:102C90001A50D9261B50DA22DF30E832E832070B0F
:102CA0001C6E1C461C461C461F501C18C70B1C18CB
:102CB0001F6E20EE01F01A50D9261B50DA22DF5089
:102CC000070B1C6E1F501C18F80B1C181F6E1E0ED5
:102CD000106E000E116E010E126E79EC13F01F0EC5
:102CE000106E000E116E000E126E79EC13F01200D1
:102CF00019501A10D8A47FEF16F081EF16F083EF69
:102D000016F0E3EF16F01D9E19C0D9FF1AC0DAFFC6
:102D1000DFAC02D01D8C01D01D9C19C0D9FF1AC098
:102D2000DAFFDF30E832E832070B1B6E1B461B462A
:102D30001B461D501B18C70B1B181D6E19C0D9FF51
:102D40001AC0DAFFDF50070B1B6E1D501B18F80B63
:102D50001B181D6E1E9E20EE01F01950D9261A5028
:102D6000DA22DFAC02D01E8C01D01E9C20EE01F0D6
:102D70001950D9261A50DA22DF30E832E832070B30
:102D80001B6E1B461B461B461E501B18C70B1B18F1
:102D90001E6E20EE01F01950D9261A50DA22DF50AB
:102DA000070B1B6E1E501B18F80B1B181E6E1D0EFA
:102DB000106E000E116E54EC12F01E0E106E000E0E
:102DC000116E54EC12F0120012501310D8B4EBEF45
:102DD00016F0EDEF16F0F6EF16F012501310D8A41F
:102DE000F4EF16F0F6EF16F0FBEF16F0105006ECCD
:102DF00020F048EF17F020EE04F01250D9261350BF
:102E0000DA22DE50DE10D8B408EF17F00AEF17F020
:102E100025EF17F020EE04F01250D9261350DA22D5
:102E200010EE02F01250E1261350E222DE50E65C72
:102E3000E650800A186EDE50800A1858D8B023EF8A
:102E400017F025EF17F048EF17F020EE02F01250C0
:102E5000D9261350DA22DECF14F0DDCF15F012C0E0
:102E6000D9FF13C0DAFFDECF16F0DDCF17F0145014
:102E70001624D96E15501720DA6E10C0DFFF20EE31
:102E800002F01250D9261350DA22DE2A000EDD227B
:102E900012005EEC1FF00009D8B451EF17F053EFA9
:102EA00017F08EEF17F061EF17F0C6EC1FF0AAEFE6
:102EB00017F0C2EC1FF0AAEF17F0BAEC1FF0AAEF60
:102EC00017F092C019F093C01AF002D872EF17F001
:102ED0000500FA6E00018651FD6E8751FE6EFF6A95
:102EE000FA501200116E126A1250000AD8B47BEF29
:102EF00017F05DEF17F01150010AD8B45DEF17F02D
:102F0000030AD8B455EF17F0010AD8B459EF17F0F7
:102F1000070AD8B45DEF17F05DEF17F00001A39139
:102F20009DC0D9FF9EC0DAFF9D4B9E2BDF50CAEC9F
:102F30001FF000019F07D8A0A0079F51A011D8A49F
:102F4000A4EF17F0A6EF17F0A9EF17F0060EAAEFFF
:102F500017F0030E12005FA0B0EF17F0B2EF17F0FA
:102F6000BCEF17F022C019F023C01AF020C01BF0EC
:102F700021C01CF0E0EC1CF025BEC1EF17F0C3EF40
:102F800017F0C9EF17F024C029F025C02AF0CDEFC3
:102F900017F0000E2A6E000E296E000E286E000E2D
:102FA000276EDFEF17F0000E116E200E106E20C09E
:102FB00012F021C013F0E4EC16F0274A282A295019
:102FC000275C2850800A266E2A50800A2658D8A0EE
:102FD000ECEF17F0EEEF17F0D3EF17F05FB0F3EF71
:102FE00017F0F5EF17F0FFEF17F022C019F023C02C
:102FF0001AF020C01BF021C01CF0E0EC1CF022C035
:1030000010F023C011F0B8EC1CF029501024206EF1
:103010002A501120216E1200010E196E105011104D
:10302000D8B415EF18F017EF18F031EF18F0125070
:103030001310D8B41EEF18F020EF18F031EF18F08D
:1030400010C0D9FF11C0DAFFDF30E832E832070BD9
:10305000146E070E14642FEF18F031EF18F035EFEF
:1030600018F0000E196E66EF18F010C0D9FF11C0ED
:10307000DAFFDF30E832E832070B146E10C0D9FFF8
:1030800011C0DAFFDF50070B156E1550020D000E50
:10309000F324D96E010EF420DA6EDECF16F0DDCF08
:1030A00017F016C0D9FF17C0DAFFDF50186E142AC8
:1030B0005CEF18F0D8901832142E5AEF18F0185010
:1030C000010B12C0D9FF13C0DAFFDF6E19501200D6
:1030D000E3EC1FF09DC0D9FF9EC0DAFFDF6E000158
:1030E0009D4B9E2B9F07D8A0A0079F51A011D8B43D
:1030F0007CEF18F07EEF18F083EF18F0D2EC1FF0A1
:10310000050EBAEF18F0A3878EEF18F0AEEC1FF0A3
:10311000BAEF18F0B2EC1FF0BAEF18F08CC019F04B
:103120008DC01AF002D89EEF18F00500FA6E80519B
:10313000FD6E8151FE6EFF6AFA501200106E116A28
:103140001150000AD8B4A7EF18F08AEF18F0105009
:10315000010AD8B48AEF18F0030AD8B486EF18F041
:10316000010AD8B486EF18F0070AD8B48AEF18F02D
:103170008AEF18F012000001F16F0001EF51F01119
:10318000D8A4C5EF18F0C7EF18F0C9EF18F006EF94
:1031900019F0EFC014F0F0C015F0000E176E000E1D
:1031A000166E000E196E040E186E4BEC10F0EFC088
:1031B000DDF0F0C0DEF0720E0001DF6F100EE06F88
:1031C000F1C0E1F0E26B8FEC1CF0EFC010F0F0C04A
:1031D00011F0B8EC1CF010500001EF25146E1150E6
:1031E000F021156E000E176E200E166EEFC010F057
:1031F000F0C011F0B8EC1CF010500308186E11501C
:10320000D8A0E82A0008196E4BEC10F0000E12004E
:10321000106E010E116E0001A3B511EF19F013EF3E
:1032200019F04DEF19F010C09CF0A393A385A39162
:103230000E0EA16F010E9B6FF40E9A6FA387D20E34
:10324000806F3F0E816F000E8C6F000E8D6FD20E5F
:10325000826F3F0E836F000E8E6F000E8F6FD20E47
:10326000846F3F0E856F000E906F000E916FD20E2F
:10327000866F3F0E876F000E926F000E936FCE0E1B
:10328000886F3F0E896F000E946F000E956FF5ECFE
:103290001FF0F6EC1EF0000E116E11501200C00E61
:1032A000F66E3C0EF76E000EF86E01EE00F010EEBA
:1032B0002CF00900F5CFEEFFE550E150FAE14A0E9F
:1032C000F66E3F0EF76E000EF86E00EEF5F010EEA3
:1032D00009F00900F5CFEEFFE550E150FAE10A0EE2
:1032E000F66E400EF76E000EF86E0900F5CF6DF029
:1032F0000900F5CF6EF001EE2CF0200EEE6AE80624
:10330000FDE100EE80F0550EEE6AE806FDE100EE0C
:103310005FF00E0EEE6AE806FDE16F906F9200011D
:1033200063EF1CF0000E196E920E8CEC1BF0206EF9
:10333000320E20609EEF19F0A0EF19F0B6EF19F0F1
:103340006E0E1A6E000E1B6ED5EC19F00001C46FE4
:103350006D0E1A6E000E1B6E17EC1AF00001C46F92
:10336000FC0E1A6E000E1B6E08EC16F0310E206477
:10337000BCEF19F0BEEF19F0D4EF19F06D0E1A6E14
:10338000000E1B6ED5EC19F00001C46F6E0E1A6EA4
:10339000000E1B6E17EC1AF00001C46FFC0E1A6EC3
:1033A000000E1B6E98EC15F01200010E1D6E1A50E7
:1033B0001B10D8A4DEEF19F0E0EF19F0E4EF19F0DC
:1033C000000E1D6E15EF1AF0CAC01EF01AC0D9FF0C
:1033D0001BC0DAFFDF50070B1C6E1E501C18F80BC9
:1033E0001C181E6E1AC0D9FF1BC0DAFFDF30E8328E
:1033F000E832070B1C6E1C461C461C461E501C184F
:10340000C70B1C181E6E1AC0D9FF1BC0DAFFDFAC39
:1034100002D01E8C01D01E9C1E9E1E0E106E000E31
:10342000116E010E126E79EC13F01D501200010E98
:103430001D6E1A501B10D8A420EF1AF022EF1AF0BC
:1034400026EF1AF0000E1D6E57EF1AF0C9C01EF0DD
:103450001AC0D9FF1BC0DAFFDF50070B1C6E1E50CD
:103460001C18F80B1C181E6E1AC0D9FF1BC0DAFFFF
:10347000DF30E832E832070B1C6E1C461C461C4647
:103480001E501C18C70B1C181E6E1AC0D9FF1BC07B
:10349000DAFFDFAC02D01E8C01D01E9C1E9E1E0ED9
:1034A000106E000E116E000E126E79EC13F01D50AE
:1034B000120012501310D8A460EF1AF062EF1AF045
:1034C00064EF1AF099EF1AF01150030BAA6E10C0B6
:1034D000A9FFA69EA69CA6BE70EF1AF072EF1AF086
:1034E0007EEF1AF0A6BC77EF1AF079EF1AF07EEFB4
:1034F0001AF0A68000F000F07EEF1AF012C0D9FF9B
:1035000013C0DAFFA8CFDFFFA6B089EF1AF08BEF68
:103510001AF084EF1AF0A6B090EF1AF092EF1AF0BA
:1035200096EF1AF0010E146E98EF1AF0000E146E5A
:10353000145012000001A387ABEF1AF0BEEC1FF08D
:10354000D7EF1AF0E1EC1FF0030ED7EF1AF0BAEC48
:103550001FF0D7EF1AF08CC019F08DC01AF002D806
:10356000BBEF1AF00500FA6E8051FD6E8151FE6EC0
:10357000FF6AFA501200106E116A1150000AD8B496
:10358000C4EF1AF0A7EF1AF01050010AD8B4A7EF51
:103590001AF0030AD8B49EEF1AF0010AD8B49EEFCD
:1035A0001AF0070AD8B4A2EF1AF0A7EF1AF0120027
:1035B000146E10501110D8B4E0EF1AF0E2EF1AF0C8
:1035C000FCEF1AF01450020D800EF324D96E000E99
:1035D000F420DA6E10C0DEFF11C0DDFF1450020DC2
:1035E0008C0EF324D96E000EF420DA6E12C0DEFFCA
:1035F00013C0DDFF14EF1BF01450020D800EF324F6
:10360000D96E000EF420DA6ED20EDE6E3F0EDD6E45
:103610001450020D8C0EF324D96E000EF420DA6ED5
:10362000000EDE6E000EDD6E1200000E1E6E000E2D
:103630001F6E19501A10D8A420EF1BF022EF1BF0B8
:1036400024EF1BF050EF1BF0000E1E6E1E501924CD
:10365000106E000E1A20116E54EC12F01E2A030E8A
:103660001E6435EF1BF037EF1BF026EF1BF0000E4A
:103670001F6E1F5019241B6E000E1A201C6E040EA4
:103680001B24106E000E1C20116E54EC12F01F2A29
:10369000030E1F644EEF1BF050EF1BF039EF1BF0D1
:1036A00012001D501E10D8A458EF1BF05AEF1BF04B
:1036B0005CEF1BF08BEF1BF0CBC021F01DC0D9FFDE
:1036C0001EC0DAFFDF50070B1F6E21501F18F80BCA
:1036D0001F18216E1DC0D9FF1EC0DAFFDF30E8328F
:1036E000E832070B1F6E1F461F461F4621501F184A
:1036F000C70B1F18216E1DC0D9FF1EC0DAFFDFAC3B
:1037000002D0218C01D0219C219E210E1A6E000E28
:103710001B6EABEC1DF012001A6E000E1B6E1A50E1
:1037200008EC19F00009D8B498EF1BF09AEF1BF0E1
:103730008FEF1BF0440E156E3D0E166E1B0E176EAE
:10374000000E186E2EEC1FF0190E106E000E116E8A
:10375000000E136E010E126EE4EC1EF0000E156EDC
:10376000000E166E000E176E000E186E22EC1FF083
:10377000AAEC1FF0CEEC1EF0E806D8B4C2EF1BF0A6
:10378000C4EF1BF0BAEF1BF01B501200F5EC1FF05A
:103790000001A3A1CEEF1BF0D0EF1BF0DDEF1BF07B
:1037A0005EEC1FF00009D8B4D8EF1BF0DAEF1BF085
:1037B000DDEF1BF00F0E0001A16F0001A151020D02
:1037C000010EF324F66E100EF420F76EF86A000E68
:1037D000F8220900F5CF13F00900F5CF14F002D854
:1037E000FBEF1BF00500FA6E1350FD6E1450FE6ED9
:1037F000FF6AFA5012000001A16F12000001A391AC
:10380000020EA26F0CEF1CF0BEEC1FF030EF1CF0AC
:10381000BAEC1FF030EF1CF090C019F091C01AF014
:1038200002D81CEF1CF00500FA6E8451FD6E855124
:10383000FE6EFF6AFA501200106E116A1150000AF3
:10384000D8B425EF1CF008EF1CF01050020AD8B4D1
:1038500004EF1CF0010AD8B404EF1CF008EF1CF0D0
:103860001200D7C0DBF0D8C0DCF0000E0001A56F5D
:10387000000EA46F4FEF1CF0D5C04FF0D6C050F033
:10388000DB0E516E000E526ED9C053F0DAC054F008
:10389000E7EC0DF04F500001A4275050A523DBC0EA
:1038A000F6FFDCC0F7FFF86A0800F5500009D8A45D
:1038B0005CEF1CF05EEF1CF03CEF1CF0A4C0D5F0F8
:1038C000A5C0D6F012009BEC1FF0000E116E000E8A
:1038D000106E6B0E126E000E136E59EC1AF0000192
:1038E000C46F6B28D8A477EF1CF079EF1CF083EF3E
:1038F0001CF0000E136E000E126E320E146E2AECC7
:103900001EF00001C46F46EC1EF0A0EC1FF0E2ECCC
:103910000AF092EC19F085EF1CF023EF00F0E10EB5
:103920000001E76F000EE86FDDC0E9F0DEC0EAF0ED
:10393000000EEC6F000EEB6F000EEE6F000EED6FE1
:10394000E90ED56F000ED66FDFC0D7F0E0C0D8F01B
:10395000E70ED96F000EDA6F31EC1CF00001EB516D
:10396000DD25D96EEC51DE21DA6E000EDF6E12001D
:1039700010C012F011C013F0C0EF1CF0104A112A51
:1039800010C0F6FF11C0F7FF000EF86E0F0EF764BF
:1039900003D00800F55005D0F6CFE9FFF7CFEAFFD6
:1039A000EF500009D8A4D7EF1CF0D9EF1CF0BEEF00
:1039B0001CF01250105C106E13501158116E120052
:1039C000000E1F6E000E1E6EF1EF1CF01DC010F0F9
:1039D000116A1BC012F01CC013F0E4EC16F01E4A72
:1039E0001F2A1E501924D96E1F501A20DA6EDF507C
:1039F0001D6E1D50D8A4FFEF1CF001EF1DF0E6EF87
:103A00001CF01200156E010E166E0001A3B30BEF31
:103A10001DF00DEF1DF022EF1DF0A383000E166EBA
:103A20001550D8B416EF1DF018EF1DF01CEF1DF067
:103A3000010EA16F1EEF1DF0020EA16FEFEC1FF043
:103A400007EC1FF016501200A1926704D8A42BEFC8
:103A50001DF02DEF1DF035EF1DF061C001F062C0CB
:103A600002F0D8EC1FF045EF1DF06750D8A43BEFF3
:103A70001DF03DEF1DF045EF1DF061C001F062C08B
:103A800002F03AEC1FF045EF1DF012009E90690421
:103A9000D8A44DEF1DF04FEF1DF057EF1DF063C0A0
:103AA00001F064C002F0DBEC1FF067EF1DF069501D
:103AB000D8A45DEF1DF05FEF1DF067EF1DF063C050
:103AC00001F064C002F046EC1FF067EF1DF0120039
:103AD000F2946A04D8A46FEF1DF071EF1DF079EF36
:103AE0001DF065C001F066C002F0DEEC1FF089EF4A
:103AF0001DF06A50D8A47FEF1DF081EF1DF089EF13
:103B00001DF065C001F066C002F052EC1FF089EFB5
:103B10001DF01200000ED0BE010E106E000EF2BE9F
:103B2000010E116ED09EF29E550EA76EAA0EA76EC4
:103B3000A682A6B29EEF1DF0A0EF1DF099EF1DF03A
:103B400010B002D0D09E01D0D08E11B002D0F29E23
:103B500001D0F28E12001A501B10D8A4B2EF1DF043
:103B6000B4EF1DF0B6EF1DF0CAEF1DF01AC010F053
:103B70001BC011F054EC12F01AC010F01BC011F071
:103B80001AC0D9FF1BC0DAFF000EDFBC010E126E97
:103B900079EC13F0120023BED8EF1DF0235006E19C
:103BA0002204D8B0D6EF1DF0D8EF1DF0E6EF1DF0DF
:103BB00022C024F023C025F0241E251E244A252AD5
:103BC00024C022F025C023F0EAEF1DF022C022F02D
:103BD00023C023F0120020EE02F01950D9261A500B
:103BE000DA22DECF10F0DDCF11F019C0D9FF1AC0F4
:103BF000DAFFDECF12F0DDCF13F0E4EC1EF0000EA2
:103C0000156E000E166E000E176E000E186E2EEC5E
:103C10001FF0020E1200240E196E010E1A6E15EC22
:103C20001BF0F60E236E000E246EE9EC12F06E0E01
:103C30001D6E000E1E6E51EC1BF06D0E1D6E000E03
:103C40001E6E51EC1BF0FC0E196E000E1A6E78EC15
:103C500016F012001350030BAA6E12C0A9FF14C075
:103C6000A8FFA69EA69CA6848AEC1DF0A694A6B6E4
:103C70003CEF1EF03EEF1EF042EF1EF0010E156EFF
:103C800044EF1EF0000E156E15501200000E0001DC
:103C9000CC6F000ECD6F010ECE6F200ECF6F4E0E8B
:103CA000D06F000ED16F000ED26FD451F80B010906
:103CB000D46FD451070B0809D46F320ED36F1200A2
:103CC000800F810F820F830F840F890F8A0F8B0F54
:103CD0008C0F8D0F920F930F940F950F960F00007E
:103CE00001000000030B131BA3ABB3BB19C010F002
:103CF0001AC011F0000E136E010E126EE4EC1EF0ED
:103D0000000E156E000E166E000E176E000E186E69
:103D10002EEC1FF0040E120019C010F01AC011F0A2
:103D2000000E136E020E126EE4EC1EF0000E156E05
:103D3000000E166E000E176E000E186E2EEC1FF0A1
:103D4000020E120019C010F01AC011F0000E136E0E
:103D5000010E126EE4EC1EF0000E156E000E166ED3
:103D6000000E176E000E186E2EEC1FF0020E1200E1
:103D700019C010F01AC011F0000E136E020E126E70
:103D8000E4EC1EF0000E156E000E166E000E176E9F
:103D9000000E186E2EEC1FF0040E1200010E106EB5
:103DA0000001A3B3D6EF1EF0D8EF1EF0E2EF1EF035
:103DB000A3959C69F5EC1FF0F1EC1FF0F3EC1FF0FC
:103DC000A2C010F0105012000001A3A7EAEF1EF0ED
:103DD000ECEF1EF0F5EF1EF010C09DF011C09EF04C
:103DE00012C09FF013C0A0F0A3971200C6BAFBEF59
:103DF0001EF0FDEF1EF006EF1FF0800EC76E080EDE
:103E0000C66E000EC56E130EC86EC68A12000DEF88
:103E10001FF072EC1FF0C6EC1BF00001A3B313EF10
:103E20001FF015EF1FF009EF1FF01200800EC76E94
:103E3000080EC66E000EC56E130EC86E948694886A
:103E4000C69A120015C010F016C011F017C012F07B
:103E500018C013F0020ED8EC1AF0120015C010F0C2
:103E600016C011F017C012F018C013F0000ED8ECF5
:103E70001AF01200000E066E000E056E0250056E5E
:103E8000066A05C0B3FF01C0B2FF1200000E066E45
:103E9000000E056E0250056E066A05C0CFFF01C018
:103EA000CEFF1200000E066E000E056E0250056E6B
:103EB000066A05C0D7FF01C0D6FF1200C5BC63EF7C
:103EC0001FF066EF1FF0010E67EF1FF0000E1200EB
:103ED0009E966C0E016E000E026E010E036E08ECD3
:103EE00014F012009EA677EF1FF079EF1FF072EF2B
:103EF0001FF012000001A3819C510109CAEC1FF0C0
:103F0000050E12000001A3819C51CAEC1FF0030EA4
:103F100012000001A393000EA26F0E0E120000010A
:103F2000A391E5EC1FF0040E12000001A393000E14
:103F3000A26F0E0E12000BEC1EF016EC1FF012001A
:103F40008AEC0FF092EC14F0120012010911192101
:033F500029323AD9
:103F5400000E02EC1DF01200D5EC1FF0090E120049
:103F6400D5EC1FF00A0E1200D2EC1FF0050E120061
:103F7400EBEC1FF0000E1200EDEC1FF0010E12002E
:103F8400EDEC1FF0020E1200EDEC1FF0010E12001A
:103F9400106E10C0C9FF12009E9268C0CCFF1200C0
:103FA400C59AC5881200C58AC588120001C0B2FF2F
:103FB400120001C0CEFF120001C0D6FF12009E867F
:103FC4001200C9501200C5861200050E1200010E1F
:103FD4001200C5841200C5821200C58012009D968D
:103FE4001200C69A12009E961200F09212009D983A
:103FF4001200F2901200F0901200F29212009E94BD
:0C40040012009E9C12000A021200120022
:020000040020DA
:08000000FFFFFFFFFFFFFFFF00
:020000040030CA
:0E000000FF02091EFF8181FF0FC00FE00F40BD
:00000001FF
